{
  "_format": "hh-sol-artifact-1",
  "contractName": "SimpleSwap",
  "sourceName": "contracts/SimpleSwap.sol",
  "abi": [
    {
      "inputs": [
        {
          "internalType": "address",
          "name": "_dETH",
          "type": "address"
        },
        {
          "internalType": "address",
          "name": "_dUSDC",
          "type": "address"
        }
      ],
      "stateMutability": "nonpayable",
      "type": "constructor"
    },
    {
      "inputs": [
        {
          "internalType": "address",
          "name": "owner",
          "type": "address"
        }
      ],
      "name": "OwnableInvalidOwner",
      "type": "error"
    },
    {
      "inputs": [
        {
          "internalType": "address",
          "name": "account",
          "type": "address"
        }
      ],
      "name": "OwnableUnauthorizedAccount",
      "type": "error"
    },
    {
      "inputs": [
        {
          "internalType": "address",
          "name": "token",
          "type": "address"
        }
      ],
      "name": "SafeERC20FailedOperation",
      "type": "error"
    },
    {
      "anonymous": false,
      "inputs": [
        {
          "indexed": true,
          "internalType": "address",
          "name": "previousOwner",
          "type": "address"
        },
        {
          "indexed": true,
          "internalType": "address",
          "name": "newOwner",
          "type": "address"
        }
      ],
      "name": "OwnershipTransferred",
      "type": "event"
    },
    {
      "anonymous": false,
      "inputs": [
        {
          "indexed": false,
          "internalType": "uint256",
          "name": "oldRate",
          "type": "uint256"
        },
        {
          "indexed": false,
          "internalType": "uint256",
          "name": "newRate",
          "type": "uint256"
        }
      ],
      "name": "RateUpdated",
      "type": "event"
    },
    {
      "anonymous": false,
      "inputs": [
        {
          "indexed": true,
          "internalType": "address",
          "name": "user",
          "type": "address"
        },
        {
          "indexed": true,
          "internalType": "address",
          "name": "tokenIn",
          "type": "address"
        },
        {
          "indexed": true,
          "internalType": "address",
          "name": "tokenOut",
          "type": "address"
        },
        {
          "indexed": false,
          "internalType": "uint256",
          "name": "amountIn",
          "type": "uint256"
        },
        {
          "indexed": false,
          "internalType": "uint256",
          "name": "amountOut",
          "type": "uint256"
        }
      ],
      "name": "Swapped",
      "type": "event"
    },
    {
      "inputs": [],
      "name": "dETH",
      "outputs": [
        {
          "internalType": "contract IERC20",
          "name": "",
          "type": "address"
        }
      ],
      "stateMutability": "view",
      "type": "function"
    },
    {
      "inputs": [],
      "name": "dUSDC",
      "outputs": [
        {
          "internalType": "contract IERC20",
          "name": "",
          "type": "address"
        }
      ],
      "stateMutability": "view",
      "type": "function"
    },
    {
      "inputs": [],
      "name": "getReserves",
      "outputs": [
        {
          "internalType": "uint256",
          "name": "dETHReserve",
          "type": "uint256"
        },
        {
          "internalType": "uint256",
          "name": "dUSDCReserve",
          "type": "uint256"
        }
      ],
      "stateMutability": "view",
      "type": "function"
    },
    {
      "inputs": [],
      "name": "owner",
      "outputs": [
        {
          "internalType": "address",
          "name": "",
          "type": "address"
        }
      ],
      "stateMutability": "view",
      "type": "function"
    },
    {
      "inputs": [],
      "name": "rate",
      "outputs": [
        {
          "internalType": "uint256",
          "name": "",
          "type": "uint256"
        }
      ],
      "stateMutability": "view",
      "type": "function"
    },
    {
      "inputs": [],
      "name": "renounceOwnership",
      "outputs": [],
      "stateMutability": "nonpayable",
      "type": "function"
    },
    {
      "inputs": [
        {
          "internalType": "uint256",
          "name": "newRate",
          "type": "uint256"
        }
      ],
      "name": "setRate",
      "outputs": [],
      "stateMutability": "nonpayable",
      "type": "function"
    },
    {
      "inputs": [
        {
          "internalType": "uint256",
          "name": "amountIn",
          "type": "uint256"
        }
      ],
      "name": "swapETHForUSDC",
      "outputs": [],
      "stateMutability": "nonpayable",
      "type": "function"
    },
    {
      "inputs": [
        {
          "internalType": "uint256",
          "name": "amountIn",
          "type": "uint256"
        }
      ],
      "name": "swapUSDCForETH",
      "outputs": [],
      "stateMutability": "nonpayable",
      "type": "function"
    },
    {
      "inputs": [
        {
          "internalType": "address",
          "name": "newOwner",
          "type": "address"
        }
      ],
      "name": "transferOwnership",
      "outputs": [],
      "stateMutability": "nonpayable",
      "type": "function"
    },
    {
      "inputs": [
        {
          "internalType": "address",
          "name": "token",
          "type": "address"
        },
        {
          "internalType": "uint256",
          "name": "amount",
          "type": "uint256"
        }
      ],
      "name": "withdraw",
      "outputs": [],
      "stateMutability": "nonpayable",
      "type": "function"
    }
  ],
  "bytecode": "0x60c0604052610b8960015534801561001657600080fd5b50604051610cba380380610cba833981016040819052610035916100e8565b338061005b57604051631e4fbdf760e01b81526000600482015260240160405180910390fd5b6100648161007c565b506001600160a01b039182166080521660a05261011b565b600080546001600160a01b038381166001600160a01b0319831681178455604051919092169283917f8be0079c531659141344cd1fd0a4f28419497f9722a3daafe3b4186f6b6457e09190a35050565b80516001600160a01b03811681146100e357600080fd5b919050565b600080604083850312156100fb57600080fd5b610104836100cc565b9150610112602084016100cc565b90509250929050565b60805160a051610b276101936000396000818160d50152818161026c01528181610401015281816104fc0152818161052501528181610785015261080d015260008181610114015281816101e9015281816104c70152818161054f015281816106bf015281816107ba01526107e30152610b276000f3fe608060405234801561001057600080fd5b50600436106100a95760003560e01c8063451ae68d11610071578063451ae68d14610162578063715018a6146101755780638da5cb5b1461017d578063f2fde38b1461018e578063f3fef3a3146101a1578063fd3bb41c146101b457600080fd5b80630902f1ac146100ae578063122d42c3146100d0578063277f17581461010f5780632c4e722e1461013657806334fcf4371461014d575b600080fd5b6100b66101c7565b604080519283526020830191909152015b60405180910390f35b6100f77f000000000000000000000000000000000000000000000000000000000000000081565b6040516001600160a01b0390911681526020016100c7565b6100f77f000000000000000000000000000000000000000000000000000000000000000081565b61013f60015481565b6040519081526020016100c7565b61016061015b366004610a0a565b6102e5565b005b610160610170366004610a0a565b61037a565b6101606105c7565b6000546001600160a01b03166100f7565b61016061019c366004610a3f565b6105db565b6101606101af366004610a61565b610619565b6101606101c2366004610a0a565b610639565b6040516370a0823160e01b815230600482015260009081906001600160a01b037f000000000000000000000000000000000000000000000000000000000000000016906370a0823190602401602060405180830381865afa158015610230573d6000803e3d6000fd5b505050506040513d601f19601f820116820180604052508101906102549190610a8b565b6040516370a0823160e01b81523060048201529092507f00000000000000000000000000000000000000000000000000000000000000006001600160a01b0316906370a0823190602401602060405180830381865afa1580156102bb573d6000803e3d6000fd5b505050506040513d601f19601f820116820180604052508101906102df9190610a8b565b90509091565b6102ed610879565b600081116103355760405162461bcd60e51b815260206004820152601060248201526f052617465206d757374206265203e20360841b60448201526064015b60405180910390fd5b600180549082905560408051828152602081018490527fb38780ddde1f073d91c150de2696f3f7085883648ba21cc5ef01029cb21d1916910160405180910390a15050565b600081116103bf5760405162461bcd60e51b81526020600482015260126024820152710416d6f756e74206d757374206265203e20360741b604482015260640161032c565b600064e8d4a51000600154836103d59190610aa4565b6103df9190610acf565b6040516370a0823160e01b815230600482015290915081906001600160a01b037f000000000000000000000000000000000000000000000000000000000000000016906370a0823190602401602060405180830381865afa158015610448573d6000803e3d6000fd5b505050506040513d601f19601f8201168201806040525081019061046c9190610a8b565b10156104ba5760405162461bcd60e51b815260206004820152601c60248201527f496e73756666696369656e74206455534443206c697175696469747900000000604482015260640161032c565b6104ef6001600160a01b037f0000000000000000000000000000000000000000000000000000000000000000163330856108a6565b6105236001600160a01b037f0000000000000000000000000000000000000000000000000000000000000000163383610913565b7f00000000000000000000000000000000000000000000000000000000000000006001600160a01b03167f00000000000000000000000000000000000000000000000000000000000000006001600160a01b0316336001600160a01b03167f6782190c91d4a7e8ad2a867deed6ec0a970cab8ff137ae2bd4abd92b3810f4d385856040516105bb929190918252602082015260400190565b60405180910390a45050565b6105cf610879565b6105d96000610949565b565b6105e3610879565b6001600160a01b03811661060d57604051631e4fbdf760e01b81526000600482015260240161032c565b61061681610949565b50565b610621610879565b6106356001600160a01b0383163383610913565b5050565b6000811161067e5760405162461bcd60e51b81526020600482015260126024820152710416d6f756e74206d757374206265203e20360741b604482015260640161032c565b6001546000906106938364e8d4a51000610aa4565b61069d9190610acf565b6040516370a0823160e01b815230600482015290915081906001600160a01b037f000000000000000000000000000000000000000000000000000000000000000016906370a0823190602401602060405180830381865afa158015610706573d6000803e3d6000fd5b505050506040513d601f19601f8201168201806040525081019061072a9190610a8b565b10156107785760405162461bcd60e51b815260206004820152601b60248201527f496e73756666696369656e742064455448206c69717569646974790000000000604482015260640161032c565b6107ad6001600160a01b037f0000000000000000000000000000000000000000000000000000000000000000163330856108a6565b6107e16001600160a01b037f0000000000000000000000000000000000000000000000000000000000000000163383610913565b7f00000000000000000000000000000000000000000000000000000000000000006001600160a01b03167f00000000000000000000000000000000000000000000000000000000000000006001600160a01b0316336001600160a01b03167f6782190c91d4a7e8ad2a867deed6ec0a970cab8ff137ae2bd4abd92b3810f4d385856040516105bb929190918252602082015260400190565b6000546001600160a01b031633146105d95760405163118cdaa760e01b815233600482015260240161032c565b6040516001600160a01b03848116602483015283811660448301526064820183905261090d9186918216906323b872dd906084015b604051602081830303815290604052915060e01b6020820180516001600160e01b038381831617835250505050610999565b50505050565b6040516001600160a01b0383811660248301526044820183905261094491859182169063a9059cbb906064016108db565b505050565b600080546001600160a01b038381166001600160a01b0319831681178455604051919092169283917f8be0079c531659141344cd1fd0a4f28419497f9722a3daafe3b4186f6b6457e09190a35050565b600080602060008451602086016000885af1806109bc576040513d6000823e3d81fd5b50506000513d915081156109d45780600114156109e1565b6001600160a01b0384163b155b1561090d57604051635274afe760e01b81526001600160a01b038516600482015260240161032c565b600060208284031215610a1c57600080fd5b5035919050565b80356001600160a01b0381168114610a3a57600080fd5b919050565b600060208284031215610a5157600080fd5b610a5a82610a23565b9392505050565b60008060408385031215610a7457600080fd5b610a7d83610a23565b946020939093013593505050565b600060208284031215610a9d57600080fd5b5051919050565b8082028115828204841417610ac957634e487b7160e01b600052601160045260246000fd5b92915050565b600082610aec57634e487b7160e01b600052601260045260246000fd5b50049056fea264697066735822122007906bab0ee843174209a275e55d83fac90607c2c0778e39e3083d31f1d32fce64736f6c63430008140033",
  "linkReferences": {},
  "deployedLinkReferences": {}
}